{
  "contractName": "GedToken",
  "abi": [
    {
      "constant": true,
      "inputs": [],
      "name": "totalSupply",
      "outputs": [
        {
          "internalType": "uint256",
          "name": "",
          "type": "uint256"
        }
      ],
      "payable": false,
      "stateMutability": "view",
      "type": "function"
    },
    {
      "constant": false,
      "inputs": [],
      "name": "GedTokens",
      "outputs": [],
      "payable": false,
      "stateMutability": "nonpayable",
      "type": "function"
    }
  ],
  "bytecode": "0x6080604052620f4240600055348015601657600080fd5b5060a2806100256000396000f3fe6080604052348015600f57600080fd5b506004361060325760003560e01c80630fb9eb3914603757806318160ddd14603f575b600080fd5b603d605b565b005b60456067565b6040518082815260200191505060405180910390f35b620f4240600081905550565b6000548156fea265627a7a72315820d6788f35aa9d8579c6f5f654ba4d97b2e1372ae8362136684f347793c9b9ef6264736f6c63430005100032",
  "source": "// SPDX-License-Identifier: MIT\r\npragma solidity >=0.4.22 <0.9.0;\r\n\r\ncontract GedToken {\r\n\t//Constructor\r\n\t//Set the total number of tokens\r\n\t//Read the total number of tokens\r\n\tuint256 public totalSupply = 1000000;\r\n\t\r\n\tfunction GedTokens () public {\r\n\t\ttotalSupply = 1000000; //1 mil supply\r\n\t}\r\n}\r\n",
  "sourcePath": "C:\\Users\\Spacebug\\Nodekode\\GedToken\\contracts\\GedToken.sol",
  "compiler": {
    "name": "solc",
    "version": "0.5.16+commit.9c3226ce.Emscripten.clang"
  },
  "schemaVersion": "3.0.23",
  "updatedAt": "2021-05-15T23:27:21.588Z",
  "networkType": "ethereum",
  "devdoc": {
    "methods": {}
  },
  "userdoc": {
    "methods": {}
  }
}