{
  "contractName": "GedToken",
  "abi": [
    {
      "inputs": [],
      "payable": false,
      "stateMutability": "nonpayable",
      "type": "constructor"
    },
    {
      "constant": true,
      "inputs": [],
      "name": "totalSupply",
      "outputs": [
        {
          "internalType": "uint256",
          "name": "",
          "type": "uint256"
        }
      ],
      "payable": false,
      "stateMutability": "view",
      "type": "function"
    }
  ],
  "bytecode": "0x6080604052348015600f57600080fd5b50620f42406000819055506084806100286000396000f3fe6080604052348015600f57600080fd5b506004361060285760003560e01c806318160ddd14602d575b600080fd5b60336049565b6040518082815260200191505060405180910390f35b6000548156fea265627a7a7231582017cc0c31aa71eb62dc383c4797dea10a71995c1e600f45b97573bd99a799b39164736f6c63430005100032",
  "source": "// SPDX-License-Identifier: MIT\r\npragma solidity >=0.4.22 <0.9.0;\r\n\r\ncontract GedToken {\r\n\t//Constructor\r\n\t//Set the total number of tokens\r\n\t//Read the total number of tokens\r\n\tuint256 public totalSupply;\r\n\t\r\n\tconstructor () public {\r\n\t\ttotalSupply = 1000000; //1 mil supply\r\n\t}\r\n}\r\n",
  "sourcePath": "C:\\Users\\Spacebug\\Nodekode\\GedToken\\contracts\\GedToken.sol",
  "compiler": {
    "name": "solc",
    "version": "0.5.16+commit.9c3226ce.Emscripten.clang"
  },
  "schemaVersion": "3.4.1",
  "updatedAt": "2021-05-15T23:49:10.216Z",
  "networkType": "ethereum",
  "devdoc": {
    "methods": {}
  },
  "userdoc": {
    "methods": {}
  }
}